:100000000C9434000C943E000C943E000C943E0082
:100010000C943E000C943E000C943E000C943E0068
:100020000C943E000C943E000C943E000C943E0058
:100030000C943E000C943E000C943E000C943E0048
:100040000C943E000C943E000C943E000C943E0038
:100050000C943E000C943E000C943E000C943E0028
:100060000C943E000C943E0011241FBECFEFD8E04C
:10007000DEBFCDBF0E9440000C947C000C940000B9
:1000800042E050E061E070E02AB1CB01042E02C0F2
:10009000880F991F0A94E2F7282B2AB94F5F5F4F08
:1000A0004830510589F7209A219AA0E4BCE960E91B
:1000B00071E01BB815B821E030E044E02536310589
:1000C00044F080E197E2FB013197F1F70197D9F70E
:1000D00003C0CD010197F1F7C90156E095958795C9
:1000E0005A95E1F785B94BB92F5F3F4F4C5F81E0DF
:0C00F0002130380719F7DDCFF894FFCF5E
:00000001FF
