:100000000C9409010C941E010C941E010C941E0109
:100010000C941E010C941E010C941E010C941E01E4
:100020000C941E010C941E010C941E010C941E01D4
:100030000C941E010C941E010C941E010C941E01C4
:100040000C941E010C941E010C941E010C941E01B4
:100050000C941E010C941E010C941E010C941E01A4
:100060000C941E010C941E0108000000BE9224494D
:10007000123EABAAAA2ABECDCCCC4C3E00000080DA
:10008000BEABAAAAAA3E00000000BF000000803F4D
:100090000000000000084178D3BB4387D1133D190D
:1000A0000E3CC3BD4282AD2B3E68EC8276BED98F3A
:1000B000E1A93E4C80EFFFBE01C4FF7F3F0000007E
:1000C00000006E616E00696E66006364696E6F7039
:1000D000737578585B65666745464700616E006ECC
:1000E00066696E69747900CDCCCC3D0AD7233C1784
:1000F000B7D13877CC2B329595E6241FB14F0A0043
:100100000020410000C84200401C4620BCBE4CCA32
:100110001B0E5AAEC59D7400407A10F35A00A072AF
:100120004E18090010A5D4E80000E8764817000032
:10013000E40B54020000CA9A3B000000E1F5050000
:100140000080969800000040420F000000A0860149
:10015000000000102700000000E803000000006419
:1001600000000000000A0000000000010000000084
:10017000002C76D888DC674F0823DFC1DFAE59E159
:10018000B1B796E5E3E453C63AE651997696E8E6C8
:10019000C28426EB898C9B62ED407C6FFCEFBC9C9B
:1001A0009F40F2BAA56FA5F490055A2AF75C936BAD
:1001B0006CF9676DC11BFCE0E40D47FEF520E6B568
:1001C00000D0ED902E0300943577050080841E0842
:1001D0000000204E0A000000C80C333333330F9860
:1001E0006E12831141EF8D2114893BE65516CFFE27
:1001F000E6DB18D1844B381BF77C1D901DA4BBE4B3
:1002000024203284725E228100C9F124ECA1E53DF4
:10021000270011241FBECFEFD8E0DEBFCDBF11E015
:10022000A0E0B1E0EEE4FFE102C005900D92AA303B
:10023000B107D9F70E9452020C94A50F0C9400004C
:10024000569A84B5806884BD84B5836084BD85B5C5
:10025000826085BD08951092C50087E68093C40032
:1002600088E18093C10086E08093C2000895EAE7A8
:10027000F0E0808180688083ACE7B0E08C9180649E
:100280008C938081876080838081806480830895DF
:1002900087BD089590917C00907F90937C00909111
:1002A0007C00982B90937C0080917A0080648093EE
:1002B0007A0080917A0086FDFCCF20917800309101
:1002C0007900C9010895FC0107C08091C00085FF35
:1002D000FCCF9093C600319690819923B1F7089591
:1002E00020E030E040EA5FE005C0FA013197F1F725
:1002F0002F5F3F4F28173907C0F30895982F80913B
:10030000C00085FFFCCF9093C60008950F931F9304
:10031000DF93CF9300D00F92CDB7DEB78E010F5F82
:100320001F4FC80160E071E00E94860EC8010E9464
:1003300063010F900F900F90CF91DF911F910F915C
:1003400008958F929F92AF92BF92CF92DF92EF92D9
:10035000FF920F931F93DF93CF93CDB7DEB7A8978C
:100360000FB6F894DEBF0FBECDBF69017A012DB77D
:100370003EB7285030400FB6F8943EBF0FBE2DBF99
:10038000EDB7FEB731964E010894811C911CADB7B4
:10039000BEB712969C928E92119703E011E01383E0
:1003A000028364837583868397830E94060FEDB76B
:1003B000FEB7319685E1A82EB12CAC0EBD1EADB7AF
:1003C000BEB71296BC92AE92119713830283C48279
:1003D000D582E682F7820E94060F2DB73EB7285FCE
:1003E0003F4F0FB6F8943EBF0FBE2DBFC4010E9411
:1003F000630188E091E00E946301C5010E946301EE
:100400000E948601A8960FB6F894DEBF0FBECDBF3E
:10041000CF91DF911F910F91FF90EF90DF90CF90E0
:10042000BF90AF909F908F900895A0E0B0E0BC0186
:10043000CD010E94C00B9B01AC0160E070EC8FE726
:1004400094E40E942C0B20E030E040E85FE30E943F
:10045000C30A20E030E44CE156E40E94BB0C20E0EB
:1004600030E44CE156E40E942C0B0E947B0C20E00F
:1004700030EE46E755E40E942C0B2FE03FEC4BE5B5
:100480005BE30E94C40A9B01AC0160E070E080E87D
:100490009FE30E942C0B23E333E948E853E40E94D6
:1004A000C30A08952F923F924F925F926F927F926C
:1004B0008F929F92AF92BF92CF92DF92EF92FF9274
:1004C0000F931F93CF93DF930E9420011092C500DA
:1004D00087E68093C40088E18093C10086E0809322
:1004E000C2000E94370117BC87E00E944A0185368E
:1004F0009105D4F70F2EF0E06F2EF0E07F2EFCE098
:100500008F2EF2E49F2EF02D0F2EF0E02F2EF0E034
:100510003F2EF0E04F2EF0E05F2EF02DC0EADFE03E
:1005200087E00E944A018C0185569040873C9105E6
:1005300098F480E090E0FE013197F1F70196823364
:100540009105C9F7C401B30120E030E040E85FE362
:100550000E94C40A3B014C010D521140073C110599
:1005600098F480E090E0FE013197F1F70196823334
:100570009105C9F7C401B30120E030E040E85FE332
:100580000E94C30A3B014C0180E00E944A010E9484
:1005900015027B018C01A40193010E94A101C401F9
:1005A000B301A80197010E94C30A5B016C0120E01E
:1005B00030E040EA51E40E94BB0C7B018C01C60193
:1005C000B501A20191010E94C30A20E030E040EF92
:1005D00051EC0E94BB0C9B01AC01C801B7010E9409
:1005E000C40A7B018C0120E030E04FE753E40E9415
:1005F000720C18165CF40F2EF0E0EF2EF0E0FF2ED8
:10060000FFE70F2FF3E41F2FF02D14C0C801B7012F
:1006100020E030E040E050E00E94280B882354F4B2
:100620000F2EF0E0EF2EF0E0FF2EF0E00F2FF0E0C5
:100630001F2FF02DC801B7010E94940B67BD80E009
:1006400090E0FE013197F1F7019684369105C9F7E4
:100650001501260165CFA1E1B0E0E1E3F3E00C94E0
:10066000510D3C017F876E876A01FC01178216825B
:10067000838181FD03C06FEF7FEF6FC39E012F5F0A
:100680003F4F398B288BF3012381EE85FF8523FDB6
:10069000859123FF8191FF87EE87882309F45AC350
:1006A000853251F4EE85FF8523FD859123FF8191ED
:1006B000FF87EE87853229F490E0B3010E94DA0EBD
:1006C000E2CF982F10E0882499241032B0F49B32A6
:1006D00069F09C3228F4903251F0933271F40BC0DF
:1006E0009D3239F0903349F4116028C012601460D3
:1006F00025C0186023C0106121C017FD2AC0892FB2
:1007000080538A3078F416FF06C0FAE09F9E902C42
:100710001124980E13C03AE0839E802C1124880E79
:1007200010620CC09E3221F416FD14C3106406C082
:100730009C3611F4106802C0983659F4EE85FF8596
:1007400023FD959123FF9191FF87EE87992309F06F
:10075000BCCF892F8554833020F4812F8061905E37
:1007600007C0892F8556833008F09FC1812F8F7E67
:1007700086FD02C076E0972E6FE3F62EF8229536BE
:1007800019F4F0E4FF2A07C0963619F420E8F22A9B
:1007900002C091109A94F7FE0AC03BE3391518F491
:1007A0005CE3B52E02C0B92CB39427E009C047E042
:1007B000491520F4BB2447E0942EF7CF292DBB2404
:1007C000C60104969D878C87F601608171818281C4
:1007D0009381AE014F5F5F4F0B2D0E94880D6C011E
:1007E0000981202E332400FF04C003FD02C01DE256
:1007F00009C0F1FE02C01BE205C0F2FC02C010E01D
:1008000001C010E2C1018C709070892BB9F11123E5
:1008100011F483E001C084E0881510F088240AC038
:10082000881AF3FC07C080E290E0B3010E94DA0E60
:100830008A94C9F7112329F0812F90E0B3010E9417
:10084000DA0E23FE03C002EC10E00EC006EC10E04E
:100850000BC0E114F10409F0805290E0B3010E9452
:10086000DA0E0F5F1F4F05C0EF2CFF24F0E1EF22DF
:10087000FF24F8018491882361F714C1F7FE12C0A8
:10088000BC0C24FE04C08A81813309F4BA941B1481
:100890001CF0BB24B3942DC0F8E0FB1550F538E0F4
:1008A000B32E27C0F6FC25C0892D90E08C159D0540
:1008B0004CF02CEFC2162FEFD20624F030E8F32ACA
:1008C00001C09A94992049F0E2E0F0E0EC0FFD1F9E
:1008D000E90DF11D80818033A1F3F7FE0AC0B92C28
:1008E000B394892D90E0C816D90614F0992401C05C
:1008F0009C18F7FC03C025E030E009C01C141D045F
:100900001CF021E030E003C096012F5F3F4F112320
:1009100011F02F5F3F4F992029F0892D90E001962B
:10092000280F391F882D90E02817390714F08824E4
:1009300001C0821A4F2C5524C20189709070892BF6
:1009400039F008C080E290E0B3010E94DA0E8A9488
:100950008820C1F7112329F0812F90E0B3010E9474
:10096000DA0E43FE07C008C080E390E0B3010E94A6
:10097000DA0E8A948820C1F7F7FE46C08601D7FEBA
:1009800002C000E010E076010894E11CF11CE01ABE
:10099000F10A41E050E04C0F5D1FE40EF51E260108
:1009A0004B185108892D90E0AA24BB24A81AB90A33
:1009B0005FEF0F3F150729F48EE290E0B3010E942C
:1009C000DA0EC016D10634F0401651061CF4F701B9
:1009D000808101C080E3015010400894E11CF11CAB
:1009E0000A151B052CF090E0B3010E94DA0EE0CF4F
:1009F0000C151D0539F49A81963318F4953311F4CA
:100A000024FE81E390E04BC08A81813309F00F7EA0
:100A100090E0B3010E94DA0E9920A1F08EE290E0FE
:100A2000B3010E94DA0E12E0E1E0F0E0EC0FFD1FEE
:100A3000E10FF11D1F5F808190E0B3010E94DA0E8B
:100A40009A9491F744FC03C085E690E002C085E4E7
:100A500090E0B3010E94DA0ED7FC05C0C114D104A6
:100A600041F404FF06C0D094C194D108D3948DE220
:100A700001C08BE290E0B3010E94DA0E80E305C072
:100A80008F5F26EF3FEFC20ED31E3AE0C316D104AC
:100A9000BCF790E0B3010E94DA0EC601C096B30124
:100AA0000E94DA0ECC84DD8452C1933631F0933744
:100AB00099F0933509F059C023C0F60180818983EC
:100AC0005E010894A11CB11C22E030E0C20ED31ECE
:100AD00021E0E22EF12C12C0F601A080B18016FDBB
:100AE00003C06FEF7FEF02C0692D70E022E030E0BD
:100AF000C20ED31EC5010E948D0E7C011F7713C04C
:100B0000F601A080B18016FD03C06FEF7FEF02C039
:100B1000692D70E022E030E0C20ED31EC5010E94B4
:100B20007B0E7C01106813FF07C01BC080E290E0C1
:100B3000B3010E94DA0E8A94882D90E0E816F90637
:100B4000A8F30FC0F50117FD859117FF81915F0193
:100B500090E0B3010E94DA0E81108A940894E108B3
:100B6000F108E114F10471F7F2C0943611F09936EE
:100B700089F517FF08C0F601208131814281538138
:100B800084E090E00AC0F601808191819C014427B5
:100B900037FD4095542F82E090E0C80ED91E9FE6A5
:100BA000F92EF12257FF09C05095409530952195B7
:100BB0003F4F4F4F5F4F90E8F92ACA01B901AE018C
:100BC0004F5F5F4F2AE030E00E94440FE82EE88933
:100BD000EE1A41C0953721F41F7E2AE030E01CC098
:100BE000197F9F3661F0903720F4983509F0B2C034
:100BF0000FC0903739F0983709F0ACC004C028E036
:100C000030E00AC0106114FD146020E130E004C03F
:100C100014FD166020E132E017FF08C0F601608184
:100C200071818281938144E050E008C0F6018081A7
:100C30009181BC0180E090E042E050E0C40ED51EFE
:100C4000AE014F5F5F4F0E94440FE82E5889E51AAE
:100C50008FE7F82EF122F6FE0BC08EEFF822E91492
:100C600038F4F4FE07C0F2FC05C09FEEF92202C082
:100C70001E2D01C0192DF4FE0DC0FE01EE0DF11D5B
:100C80008081803319F4E9EEFE2208C01F5FF2FE76
:100C900005C003C08F2D867809F01F5F0F2DF3FC70
:100CA00014C0F0FE0FC0181510F09E2C0BC09E2C27
:100CB000980C911A182D06C080E290E0B3010E94B2
:100CC000DA0E1F5F1815C0F304C0181510F4811A4E
:100CD00001C0882404FF0FC080E390E0B3010E94AC
:100CE000DA0E02FF1DC001FD03C088E790E00EC0D0
:100CF00088E590E00BC0802F867891F001FF02C05C
:100D00008BE201C080E2F7FC8DE290E0B3010E942B
:100D1000DA0E06C080E390E0B3010E94DA0E9A94E6
:100D2000E914C0F3EA94E1E0F0E0EC0FFD1FEE0DF2
:100D3000F11D808190E0B3010E94DA0EEE2091F760
:100D400006C080E290E0B3010E94DA0E8A94882007
:100D5000C1F799CCF30166817781CB016196E2E11D
:100D60000C946D0DFC0120FD08C023FD05C022FF81
:100D700002C073836283518340830895EF92FF9290
:100D80000F931F9344FF02C033E011C046FF02C01F
:100D900034E00DC0DB01FC01AA0FBB1FEE1FFF1FDB
:100DA0001094D1F76A0F7B1F8E1F9F1F31E0660FD3
:100DB000771F881F991F3150D1F77B018C01E20EFC
:100DC000F11C011D111DA8019701B701CA011F9156
:100DD0000F91FF90EF9008950F931F93CF93DF93A0
:100DE0008C01C8010E94980EEC0197FD08C00E947A
:100DF000600E892BB1F7CE01B8010E942A0FCE01F7
:100E0000DF91CF911F910F9108958F929F92AF9292
:100E1000BF92DF92EF92FF920F931F93CF93DF93D6
:100E20005C01EB014A01122F0E94980EAC018B323B
:100E300019F08D3251F41068219709F46DC0C50185
:100E40000E94980EAC0197FD67C06DEFD62ED1229F
:100E50008D2D807301F54033F1F4219709F447C0DB
:100E6000C5010E94980EAC0197FD41C082E0D82ACE
:100E7000483711F0483559F480E4D82A2197B9F160
:100E8000C5010E94980EAC0199232CF430C0D6FC09
:100E900002C080E1D82AEE24FF248701242F2053AA
:100EA000283088F0D4FC09C02A3068F0D6FE05C08E
:100EB0002F7D822F8151863028F0CA01B5010E9412
:100EC0002A0F12C02750C801B7014D2D0E94BE063F
:100ED0007B018C0182E0D82A219761F0C5010E9434
:100EE000980EAC0197FFDACFD1FC04C015C0EE24F8
:100EF000FF248701D7FE08C010950095F094E09478
:100F0000E11CF11C011D111DC401B801A7012D2D0B
:100F10000E94B20681E001C080E0DF91CF911F9175
:100F20000F91FF90EF90DF90BF90AF909F908F90C8
:100F30000895A0E2B0E0EFE9F7E00C94550D5C01F4
:100F40006B018A017901FE01319680E2DF011D9279
:100F50008A95E9F770E030E060E040E050E03F0162
:100F6000A1E0B0E0F5018381F70183FD259183FFC6
:100F700021917F01222309F481C02E3519F44115F6
:100F8000510569F1872F90E08417950744F42D35BA
:100F900051F12D3221F4332329F431E021C03323E0
:100FA00009F4622F322F832F869586958695F3015B
:100FB000E80FF11D832F87704D0102C0880C991C2A
:100FC0008A95E2F7208128292083361711F430E032
:100FD00007C0361710F43F5FE6CF3150E4CF71E021
:100FE0004F5F5F4FBFCF332319F08E8180628E83B6
:100FF000772359F0FE0131969E012F5D3F4F80818E
:1010000080958193E217F307D1F7992493943E01D9
:101010000894611C711CC5010E94980EAC0197FDDB
:1010200025C0869586958695F301E80FF11D808190
:1010300090E09A012770307002C0959587952A95A7
:10104000E2F780FD05C0CA01B5010E942A0F0EC05B
:101050000115110519F0D8014D938D010894C108AF
:10106000D1089924C114D104B1F602C0992031F4F9
:101070000115110529F0F801108202C0EE24FF24A9
:10108000C701A096EEE00C94710D2F923F925F92F3
:101090006F927F928F929F92AF92BF92CF92DF9288
:1010A000EF92FF920F931F93CF93DF933C017B014D
:1010B0001A010E94980EEC018B3239F08D3211F03A
:1010C000552411C0B0E85B2E01C055240894E108F6
:1010D000F108E114F10409F418C1C3010E94980E4B
:1010E000EC0197FD12C1CE010E94680E8936910570
:1010F00021F08E36910599F51DC00FED10E01CC052
:101100000894E108F108E114F10471F0C3010E94B0
:10111000980EEC0197FD08C00E94680ED81661F089
:10112000CE01B3010E942A0F20E0023E120709F00F
:10113000ECC008C00CED10E0F8010F5F1F4FD49019
:10114000DD20F1F60F5D104029F080E090E0A0E88E
:10115000BFE7CFC080E090E0A0ECBFE7CAC0CC24DE
:10116000DD24882499245401AE014053242F4A30B1
:1011700038F552E0552A852D90E0AC01487050704A
:1011800052FE06C0452B11F50894C11CD11C1EC08F
:10119000452B19F00894C108D108C501B40140E2FB
:1011A0000E94BE064B015C0188E9881689E9980611
:1011B00089E9A80689E1B80648F094E0592A06C0F2
:1011C0004E3F81F453FC0EC0E8E05E2A0894E1082B
:1011D000F108E114F10431F0C3010E94980EEC0112
:1011E00097FFC2CF51FE91C0C53619F0C53409F042
:1011F00046C00894E108F108E114F10409F485C03F
:10120000C3010E94980EEC0197FD7FC08B3221F044
:101210008D3269F4F0E15F2A0894E108F108E114E5
:10122000F10409F472C0C3010E94980EEC01CE01D2
:10123000C0970A9708F069C000E010E0B80188275D
:1012400077FD8095982FAE014053242F40E20E94F5
:10125000BE068B010894E108F108E114F10439F0AD
:10126000C3010E94980EEC01C0970A9738F3B801A9
:1012700054FE03C0709561957F4FC60ED71EEF28B0
:1012800031F0D7FD04C0CE01B3010E942A0FC50181
:10129000B4010E94C00BD7FE0DC0ABEFEA2EA0E058
:1012A000FA2ED094C194D108D394C0E2D0E000E0EB
:1012B00010E00EC0F3E1EF2EF1E0FF2EF6CFF701C4
:1012C00025913591459154910E94BB0CCC1ADD0AB1
:1012D000CC16DD06A0F7D695C7950F5F1F4F0630D9
:1012E000110529F0ECEFFFEFEE0EFF1EF1CFDC0150
:1012F000CB0157FCB0582114310429F0F10180834F
:101300009183A283B38381E001C080E0DF91CF911C
:101310001F910F91FF90EF90DF90CF90BF90AF9013
:101320009F908F907F906F905F903F902F90089547
:10133000A0E0B0E0EEE9F9E00C94540D4C015B0143
:101340003A01FC0117821682552404C1812F90E0D6
:101350000E94600E892B21F0C4010E94EC06FAC0A5
:10136000153249F4F501F3FC6591F3FE61915F01DB
:10137000653269F415E2C4010E94980E97FDF6C02B
:10138000181709F4E7C0B4010E942A0FF4C06A32AA
:1013900019F0162F00E006C0F3FC1591F3FE119131
:1013A0005F0101E0CC24DD240EC00260B60180E0C4
:1013B00090E040E20E94BE066B01F501F3FC15913E
:1013C000F3FE11915F01212F20532A3070F301FDAC
:1013D00004C0CC24CA94DC2C04C0C114D10409F488
:1013E000CAC0183621F01C3699F4F5010BC0F5017E
:1013F000F3FC6591F3FE6191683619F05F01162FD9
:1014000007C008600460F3FC1591F3FE11915F01C1
:10141000112309F4B0C08AEC90E0612F70E00E94C3
:10142000700E892B09F4A7C0802F00FF03C0EE24A3
:10143000FF2407C0F301E080F18022E030E0620E7B
:10144000731E1E3651F4F4014681578160E070E04E
:10145000C701202F0E94B2067DC01336B9F481FD6A
:1014600003C081E0C82ED12CC4010E94980E97FDC4
:101470007DC0E114F10419F0F70181937F01089414
:10148000C108D108C114D10479F762C01B3559F4E1
:10149000C401B601A70195010E9499075C0100975C
:1014A00009F056C050C0C4010E94EC0697FD5EC012
:1014B0001F36D1F1103738F41436A1F11936A9F1DD
:1014C0001835D1F52DC0133751F0143718F41037F3
:1014D00099F526C0153731F1183771F521C0C401CF
:1014E0000E94980EEC0197FD15C00E94600E892B9A
:1014F00029F0CE01B4010E942A0F0CC0E114F104BE
:1015000019F0F701C1937F010894C108D108C114F3
:10151000D10429F7E114F104D9F0F701108218C0C1
:10152000006403C0006201C00061C401B601A701EC
:10153000202F0E94050705C0C401B601A7010E9423
:101540004508882329F4F4018381807379F413C05A
:1015500000FF5394F401F380F501F3FC1591F3FEC1
:1015600011915F01112309F0F1CE05C0552019F446
:101570002FEF3FEF02C0252D30E0C901CDB7DEB718
:10158000EFE00C94700D5058BB27AA270ED070C105
:1015900061D130F066D120F031F49F3F11F41EF498
:1015A00056C10EF4E095E7FB4CC1E92F72D180F3F0
:1015B000BA17620773078407950718F071F49EF550
:1015C0008AC10EF4E0950B2EBA2FA02D0B01B901A4
:1015D00090010C01CA01A0011124FF27591B99F0A9
:1015E000593F50F4503E68F11A16F040A22F232FB5
:1015F000342F4427585FF3CF469537952795A79505
:10160000F0405395C9F77EF41F16BA0B620B730BAB
:10161000840BBAF09150A1F0FF0FBB1F661F771F1C
:10162000881FC2F70EC0BA0F621F731F841F48F4D1
:10163000879577956795B795F7959E3F08F0B3CF57
:101640009395880F08F09927EE0F97958795089541
:10165000D4D008F481E008950CD00AC102D140F042
:10166000F9D030F021F45F3F19F0EBC0511134C1D3
:10167000EEC00FD198F39923C9F35523B1F3951B0D
:10168000550BBB27AA2762177307840738F09F5FA3
:101690005F4F220F331F441FAA1FA9F333D00E2E12
:1016A0003AF0E0E830D091505040E695001CCAF77F
:1016B00029D0FE2F27D0660F771F881FBB1F261744
:1016C00037074807AB07B0E809F0BB0B802DBF0117
:1016D000FF2793585F4F2AF09E3F510568F0B1C035
:1016E000FBC05F3FECF3983EDCF3869577956795FA
:1016F000B795F7959F5FC9F7880F911D96958795C8
:1017000097F90895E1E0660F771F881FBB1F6217E6
:1017100073078407BA0720F0621B730B840BBA0BA4
:10172000EE1F88F7E0950895BCD088F09F5790F0A1
:10173000B92F9927B751A0F0D1F0660F771F881FF6
:10174000991F1AF0BA95C9F712C0B13081F0C3D011
:10175000B1E00895C0C0672F782F8827B85F39F0AF
:10176000B93FCCF3869577956795B395D9F73EF455
:1017700090958095709561957F4F8F4F9F4F0895FD
:10178000E89409C097FB3EF490958095709561951B
:101790007F4F8F4F9F4F9923A9F0F92F96E9BB27D1
:1017A0009395F695879577956795B795F111F8CF4D
:1017B000FAF4BB0F11F460FF1BC06F5F7F4F8F4FB8
:1017C0009F4F16C0882311F096E911C0772321F0AE
:1017D0009EE8872F762F05C0662371F096E8862F46
:1017E00070E060E02AF09A95660F771F881FDAF79D
:1017F000880F9695879597F90895990F0008550FCA
:10180000AA0BE0E8FEEF16161706E807F907C0F086
:1018100012161306E407F50798F0621B730B840B8E
:10182000950B39F40A2661F0232B242B252B21F468
:1018300008950A2609F4A140A6958FEF811D811D08
:10184000089597F99F6780E870E060E008959FEF42
:1018500080EC089500240A94161617061806090647
:10186000089500240A941216130614060506089516
:10187000092E0394000C11F4882352F0BB0F40F49E
:10188000BF2B11F460FF04C06F5F7F4F8F4F9F4FDE
:10189000089557FD9058440F551F59F05F3F71F060
:1018A0004795880F97FB991F61F09F3F79F08795C7
:1018B0000895121613061406551FF2CF4695F1DF50
:1018C00008C0161617061806991FF1CF86957105E0
:1018D000610508940895E894BB2766277727CB0114
:1018E00097F908958ADF08F48FEF08950EF0A6C0E7
:1018F000AECF6894A6CFD5DFC8F39923D1F3C6F352
:10190000DF93CF931F930F93FF92C92FDD27882377
:101910002AF02197660F771F881FDAF720E030E062
:1019200040E85FEB9FE3883920F0803E30F021965D
:101930008F772ADEE8E6F0E003C026DEE5E9F0E096
:101940008BD08B01BE01EC01FB2E6F577109759591
:10195000771F880B990B16DF28E132E741E35FE33D
:1019600016D0AF2D9801AE01FF900F911F91CF912E
:10197000DF911BDE7DCF0BD07BCF6CDF28F071DFDA
:1019800018F0952309F05DCF62CF1124A5CF81DF38
:10199000A0F3959FD1F3950F50E0551F629FF00182
:1019A000729FBB27F00DB11D639FAA27F00DB11DDB
:1019B000AA1F649F6627B00DA11D661F829F222764
:1019C000B00DA11D621F739FB00DA11D621F839FEB
:1019D000A00D611D221F749F3327A00D611D231FC1
:1019E000849F600D211D822F762F6A2F11249F570F
:1019F00050408AF0E1F088234AF0EE0FFF1FBB1F32
:101A0000661F771F881F91505040A9F79E3F5105D0
:101A100070F017CF61CF5F3FECF3983EDCF3869513
:101A200077956795B795F795E7959F5FC1F7FE2B7B
:101A3000880F911D9695879597F908959F3F31F0EE
:101A4000915020F4879577956795B795880F911DEC
:101A50009695879597F90895DF93CF931F930F93EA
:101A6000FF92EF92DF927B018C01689405C0DA2E21
:101A7000EF018DDFFE01E894A59125913591459107
:101A80005591AEF3EF0191DDFE019701A801DA94C3
:101A900079F7DF90EF90FF900F911F91CF91DF9139
:101AA00008952F923F924F925F926F927F928F9202
:101AB0009F92AF92BF92CF92DF92EF92FF920F93DD
:101AC0001F93CF93DF93CDB7DEB7CA1BDB0B0FB6E7
:101AD000F894DEBF0FBECDBF09942A8839884888A4
:101AE0005F846E847D848C849B84AA84B984C8843A
:101AF000DF80EE80FD800C811B81AA81B981CE0F31
:101B0000D11D0FB6F894DEBF0FBECDBFED01089515
:101B1000283008F027E03327DA01990F311D87FDBF
:101B2000916000966105710539F432602E5F3D9336
:101B300030E32A95E1F708959F3F30F08038710532
:101B4000610509F03C5F3C5F3D93913008F080688F
:101B5000911DDF93CF931F930F93FF92EF92192F55
:101B6000987F9695E92F96959695E90FFF27EF5860
:101B7000FE4F99273327EE24FF24A701E7010590A4
:101B80000894079428F4360FE71EF81E491F511DCC
:101B9000660F771F881F991F0694A1F70590079479
:101BA00028F4E70EF81E491F561FC11D770F881F26
:101BB000991F661F0694A1F70590079428F4F80E64
:101BC000491F561FC71FD11D880F991F661F771FFA
:101BD0000694A1F70590079420F4490F561FC71FDC
:101BE000D81F990F661F771F881F0694A9F7849145
:101BF0001095177041F0D695C79557954795F7946E
:101C0000E7941A95C1F7E7E1F1E068941590159112
:101C100035916591959105907FE27395E118F10AF0
:101C2000430B560BC90BD009C0F7E10CF11E431F43
:101C3000561FC91FD01D7EF4703311F48A95E6CF6C
:101C4000E894015030F0080F0AF40027021708F456
:101C5000202F2395022F7A3328F079E37D932A955C
:101C6000E9F710C07D932A9589F6069497956795B4
:101C7000379517951794E118F10A430B560BC90BCA
:101C8000D00998F023957E9173957A3308F070E32C
:101C90007C932013B8F77E9170617D9330F083952B
:101CA00071E37D9370E32A95E1F71124EF90FF90A3
:101CB0000F911F91CF91DF91992787FD90950895FE
:101CC000911140C1803219F089508550D0F70895A4
:101CD0009111089581548A5108F4805E855A0895BF
:101CE000FC010590061621F00020D9F7C0010895E7
:101CF0003197CF010895FC010590615070400110AB
:101D0000D8F7809590958E0F9F1F0895FB01DC01F9
:101D100001900D920020E1F70895FC0161507040A0
:101D200001900110D8F7809590958E0F9F1F089510
:101D3000CF93DF93EC014B8140FF1AC046FF0AC0EE
:101D40004F7B4B838E819F8101969F838E838A81F7
:101D5000282F2BC042FF13C0E881F9818081282FF2
:101D6000332727FD30952115310529F440624B8337
:101D70002FEF3FEF1BC03196F983E88311C0EA854E
:101D8000FB85CE0109959C0197FF0AC09B812F5FBF
:101D90003F4F11F080E201C080E1892B8B83E8CFB7
:101DA0008E819F8101969F838E8330E0C901DF91F0
:101DB000CF9108950F931F93CF93DF938C01EB0185
:101DC0008B8181FF1BC082FF0DC02E813F818C81E2
:101DD0009D812817390764F4E881F9810193F9831B
:101DE000E88306C0E885F985802F0995892B31F4B1
:101DF0008E819F8101969F838E8302C00FEF1FEF1C
:101E0000C801DF91CF911F910F910895AEE0B0E02E
:101E1000ECE0FFE00C945F0D0D891E8986E08C8359
:101E20001A8309838FEF9FE79E838D839E01275E30
:101E30003F4FCE0101966F89788DA9010E942B0337
:101E40002F813885020F131FF80110822E96E4E0CF
:101E50000C947B0D9C01FB01838180FF11C086FDEA
:101E60000FC09FEF2F3F390759F0228380648F7D89
:101E700083838681978101979783868330E002C0B0
:101E80002FEF3FEFC9010895FA01AA27283051F139
:101E9000203181F1E8946F936E7F6E5F7F4F8F4F9B
:101EA0009F4FAF4FB1E03ED0B4E03CD0670F781FFA
:101EB000891F9A1FA11D680F791F8A1F911DA11DDF
:101EC0006A0F711D811D911DA11D20D009F4689418
:101ED0003F912AE0269F11243019305D3193DEF6C0
:101EE000CF010895462F4770405D4193B3E00FD076
:101EF000C9F7F6CF462F4F70405D4A3318F0495D61
:101F000031FD4052419302D0A9F7EACFB4E0A69543
:101F10009795879577956795BA95C9F70097610565
:101F2000710508959B01AC010A2E069457954795BB
:101F300037952795BA95C9F7620F731F841F951FB0
:0E1F4000A01D0895992788270895F894FFCFD3
:0A1F4E000D0A00252E3266002C005B
:00000001FF
